{
  "contractName": "Lottery",
  "abi": [
    {
      "constant": true,
      "inputs": [],
      "name": "answerForTest",
      "outputs": [
        {
          "name": "",
          "type": "bytes32"
        }
      ],
      "payable": false,
      "stateMutability": "view",
      "type": "function",
      "signature": "0x84f7e4f0"
    },
    {
      "constant": true,
      "inputs": [],
      "name": "owner",
      "outputs": [
        {
          "name": "",
          "type": "address"
        }
      ],
      "payable": false,
      "stateMutability": "view",
      "type": "function",
      "signature": "0x8da5cb5b"
    },
    {
      "inputs": [],
      "payable": false,
      "stateMutability": "nonpayable",
      "type": "constructor",
      "signature": "constructor"
    },
    {
      "anonymous": false,
      "inputs": [
        {
          "indexed": false,
          "name": "index",
          "type": "uint256"
        },
        {
          "indexed": false,
          "name": "bettor",
          "type": "address"
        },
        {
          "indexed": false,
          "name": "amount",
          "type": "uint256"
        },
        {
          "indexed": false,
          "name": "challenges",
          "type": "bytes1"
        },
        {
          "indexed": false,
          "name": "answerBlockNumber",
          "type": "uint256"
        }
      ],
      "name": "BET",
      "type": "event",
      "signature": "0x100791de9f40bf2d56ffa6dc5597d2fd0b2703ea70bc7548cd74c04f5d215ab7"
    },
    {
      "anonymous": false,
      "inputs": [
        {
          "indexed": false,
          "name": "index",
          "type": "uint256"
        },
        {
          "indexed": false,
          "name": "bettor",
          "type": "address"
        },
        {
          "indexed": false,
          "name": "amount",
          "type": "uint256"
        },
        {
          "indexed": false,
          "name": "challenges",
          "type": "bytes1"
        },
        {
          "indexed": false,
          "name": "answer",
          "type": "bytes1"
        },
        {
          "indexed": false,
          "name": "answerBlockNumber",
          "type": "uint256"
        }
      ],
      "name": "WIN",
      "type": "event",
      "signature": "0x8219079e2d6c1192fb0ff7f78e6faaf5528ad6687e69749205d87bd4b156912b"
    },
    {
      "anonymous": false,
      "inputs": [
        {
          "indexed": false,
          "name": "index",
          "type": "uint256"
        },
        {
          "indexed": false,
          "name": "bettor",
          "type": "address"
        },
        {
          "indexed": false,
          "name": "amount",
          "type": "uint256"
        },
        {
          "indexed": false,
          "name": "challenges",
          "type": "bytes1"
        },
        {
          "indexed": false,
          "name": "answer",
          "type": "bytes1"
        },
        {
          "indexed": false,
          "name": "answerBlockNumber",
          "type": "uint256"
        }
      ],
      "name": "DRAW",
      "type": "event",
      "signature": "0x72ec2e949e4fad9380f9d5db3e2ed0e71cf22c51d8d66424508bdc761a3f4b0e"
    },
    {
      "anonymous": false,
      "inputs": [
        {
          "indexed": false,
          "name": "index",
          "type": "uint256"
        },
        {
          "indexed": false,
          "name": "bettor",
          "type": "address"
        },
        {
          "indexed": false,
          "name": "amount",
          "type": "uint256"
        },
        {
          "indexed": false,
          "name": "challenges",
          "type": "bytes1"
        },
        {
          "indexed": false,
          "name": "answer",
          "type": "bytes1"
        },
        {
          "indexed": false,
          "name": "answerBlockNumber",
          "type": "uint256"
        }
      ],
      "name": "FAIL",
      "type": "event",
      "signature": "0x3b19d607433249d2ebc766ae82ca3848e9c064f1febb5147bc6e5b21d0adebc5"
    },
    {
      "anonymous": false,
      "inputs": [
        {
          "indexed": false,
          "name": "index",
          "type": "uint256"
        },
        {
          "indexed": false,
          "name": "bettor",
          "type": "address"
        },
        {
          "indexed": false,
          "name": "amount",
          "type": "uint256"
        },
        {
          "indexed": false,
          "name": "challenges",
          "type": "bytes1"
        },
        {
          "indexed": false,
          "name": "answerBlockNumber",
          "type": "uint256"
        }
      ],
      "name": "REFUND",
      "type": "event",
      "signature": "0x59c0185881271a0f53d43e6ab9310091408f9e0ff9ae2512613de800f26b8de4"
    },
    {
      "constant": true,
      "inputs": [],
      "name": "getPot",
      "outputs": [
        {
          "name": "pot",
          "type": "uint256"
        }
      ],
      "payable": false,
      "stateMutability": "view",
      "type": "function",
      "signature": "0x403c9fa8"
    },
    {
      "constant": false,
      "inputs": [
        {
          "name": "challenges",
          "type": "bytes1"
        }
      ],
      "name": "betAndDistribute",
      "outputs": [
        {
          "name": "result",
          "type": "bool"
        }
      ],
      "payable": true,
      "stateMutability": "payable",
      "type": "function",
      "signature": "0xe16ea857"
    },
    {
      "constant": false,
      "inputs": [
        {
          "name": "challenges",
          "type": "bytes1"
        }
      ],
      "name": "bet",
      "outputs": [
        {
          "name": "result",
          "type": "bool"
        }
      ],
      "payable": true,
      "stateMutability": "payable",
      "type": "function",
      "signature": "0xf4b46f5b"
    },
    {
      "constant": false,
      "inputs": [],
      "name": "distribute",
      "outputs": [],
      "payable": false,
      "stateMutability": "nonpayable",
      "type": "function",
      "signature": "0xe4fc6b6d"
    },
    {
      "constant": false,
      "inputs": [
        {
          "name": "answer",
          "type": "bytes32"
        }
      ],
      "name": "setAnswerForTest",
      "outputs": [
        {
          "name": "result",
          "type": "bool"
        }
      ],
      "payable": false,
      "stateMutability": "nonpayable",
      "type": "function",
      "signature": "0x7009fa36"
    },
    {
      "constant": true,
      "inputs": [
        {
          "name": "challenges",
          "type": "bytes1"
        },
        {
          "name": "answer",
          "type": "bytes32"
        }
      ],
      "name": "isMatch",
      "outputs": [
        {
          "name": "",
          "type": "uint8"
        }
      ],
      "payable": false,
      "stateMutability": "pure",
      "type": "function",
      "signature": "0x99a167d7"
    },
    {
      "constant": true,
      "inputs": [
        {
          "name": "index",
          "type": "uint256"
        }
      ],
      "name": "getBetInfo",
      "outputs": [
        {
          "name": "answerBlockNumber",
          "type": "uint256"
        },
        {
          "name": "bettor",
          "type": "address"
        },
        {
          "name": "challenges",
          "type": "bytes1"
        }
      ],
      "payable": false,
      "stateMutability": "view",
      "type": "function",
      "signature": "0x79141f80"
    }
  ],
  "bytecode": "0x60806040526000600560006101000a81548160ff02191690831515021790555034801561002b57600080fd5b5033600360006101000a81548173ffffffffffffffffffffffffffffffffffffffff021916908373ffffffffffffffffffffffffffffffffffffffff16021790555061165d8061007c6000396000f3fe608060405260043610610099576000357c0100000000000000000000000000000000000000000000000000000000900463ffffffff168063403c9fa81461009e5780637009fa36146100c957806379141f801461011c57806384f7e4f0146101e95780638da5cb5b1461021457806399a167d71461026b578063e16ea857146102f4578063e4fc6b6d1461035c578063f4b46f5b14610373575b600080fd5b3480156100aa57600080fd5b506100b36103db565b6040518082815260200191505060405180910390f35b3480156100d557600080fd5b50610102600480360360208110156100ec57600080fd5b81019080803590602001909291905050506103e5565b604051808215151515815260200191505060405180910390f35b34801561012857600080fd5b506101556004803603602081101561013f57600080fd5b81019080803590602001909291905050506104e2565b604051808481526020018373ffffffffffffffffffffffffffffffffffffffff1673ffffffffffffffffffffffffffffffffffffffff168152602001827effffffffffffffffffffffffffffffffffffffffffffffffffffffffffffff19167effffffffffffffffffffffffffffffffffffffffffffffffffffffffffffff19168152602001935050505060405180910390f35b3480156101f557600080fd5b506101fe610607565b6040518082815260200191505060405180910390f35b34801561022057600080fd5b5061022961060d565b604051808273ffffffffffffffffffffffffffffffffffffffff1673ffffffffffffffffffffffffffffffffffffffff16815260200191505060405180910390f35b34801561027757600080fd5b506102d06004803603604081101561028e57600080fd5b8101908080357effffffffffffffffffffffffffffffffffffffffffffffffffffffffffffff1916906020019092919080359060200190929190505050610633565b604051808260028111156102e057fe5b60ff16815260200191505060405180910390f35b6103426004803603602081101561030a57600080fd5b8101908080357effffffffffffffffffffffffffffffffffffffffffffffffffffffffffffff1916906020019092919050505061097c565b604051808215151515815260200191505060405180910390f35b34801561036857600080fd5b50610371610999565b005b6103c16004803603602081101561038957600080fd5b8101908080357effffffffffffffffffffffffffffffffffffffffffffffffffffffffffffff191690602001909291905050506110f5565b604051808215151515815260200191505060405180910390f35b6000600454905090565b6000600360009054906101000a900473ffffffffffffffffffffffffffffffffffffffff1673ffffffffffffffffffffffffffffffffffffffff163373ffffffffffffffffffffffffffffffffffffffff161415156104d2576040517f08c379a000000000000000000000000000000000000000000000000000000000815260040180806020018281038252602c8152602001807f4f6e6c79206f776e65722063616e207365742074686520616e7377657220666f81526020017f72722074657374206d6f6465000000000000000000000000000000000000000081525060400191505060405180910390fd5b8160068190555060019050919050565b60008060006104ef6115d7565b6002600086815260200190815260200160002060606040519081016040529081600082015481526020016001820160009054906101000a900473ffffffffffffffffffffffffffffffffffffffff1673ffffffffffffffffffffffffffffffffffffffff1673ffffffffffffffffffffffffffffffffffffffff1681526020016001820160149054906101000a90047f0100000000000000000000000000000000000000000000000000000000000000027effffffffffffffffffffffffffffffffffffffffffffffffffffffffffffff19167effffffffffffffffffffffffffffffffffffffffffffffffffffffffffffff1916815250509050806000015193508060200151925080604001519150509193909250565b60065481565b600360009054906101000a900473ffffffffffffffffffffffffffffffffffffffff1681565b6000808390506000849050600084600060208110151561064f57fe5b1a7f0100000000000000000000000000000000000000000000000000000000000000029050600085600060208110151561068557fe5b1a7f01000000000000000000000000000000000000000000000000000000000000000290506004847effffffffffffffffffffffffffffffffffffffffffffffffffffffffffffff1916908060020a820491505093506004847effffffffffffffffffffffffffffffffffffffffffffffffffffffffffffff19169060020a0293506004827effffffffffffffffffffffffffffffffffffffffffffffffffffffffffffff1916908060020a820491505091506004827effffffffffffffffffffffffffffffffffffffffffffffffffffffffffffff19169060020a0291506004837effffffffffffffffffffffffffffffffffffffffffffffffffffffffffffff19169060020a0292506004837effffffffffffffffffffffffffffffffffffffffffffffffffffffffffffff1916908060020a820491505092506004817effffffffffffffffffffffffffffffffffffffffffffffffffffffffffffff19169060020a0290506004817effffffffffffffffffffffffffffffffffffffffffffffffffffffffffffff1916908060020a82049150509050837effffffffffffffffffffffffffffffffffffffffffffffffffffffffffffff1916827effffffffffffffffffffffffffffffffffffffffffffffffffffffffffffff19161480156108b45750827effffffffffffffffffffffffffffffffffffffffffffffffffffffffffffff1916817effffffffffffffffffffffffffffffffffffffffffffffffffffffffffffff1916145b156108c6576000945050505050610976565b837effffffffffffffffffffffffffffffffffffffffffffffffffffffffffffff1916827effffffffffffffffffffffffffffffffffffffffffffffffffffffffffffff1916148061095b5750827effffffffffffffffffffffffffffffffffffffffffffffffffffffffffffff1916817effffffffffffffffffffffffffffffffffffffffffffffffffffffffffffff1916145b1561096d576001945050505050610976565b60029450505050505b92915050565b6000610987826110f5565b50610990610999565b60019050919050565b6000806109a46115d7565b60008060015494505b6000548510156110e7576002600086815260200190815260200160002060606040519081016040529081600082015481526020016001820160009054906101000a900473ffffffffffffffffffffffffffffffffffffffff1673ffffffffffffffffffffffffffffffffffffffff1673ffffffffffffffffffffffffffffffffffffffff1681526020016001820160149054906101000a90047f0100000000000000000000000000000000000000000000000000000000000000027effffffffffffffffffffffffffffffffffffffffffffffffffffffffffffff19167effffffffffffffffffffffffffffffffffffffffffffffffffffffffffffff1916815250509250610abf83600001516112ca565b915060006002811115610ace57fe5b826002811115610ada57fe5b1415610fa3576000610aef846000015161131e565b9050610aff846040015182610633565b915060006002811115610b0e57fe5b826002811115610b1a57fe5b1415610c9357610b3984602001516611c37937e0800060045401611346565b5060006004819055507f8219079e2d6c1192fb0ff7f78e6faaf5528ad6687e69749205d87bd4b156912b868560200151878760400151856000602081101515610b7e57fe5b1a7f0100000000000000000000000000000000000000000000000000000000000000028960000151604051808781526020018673ffffffffffffffffffffffffffffffffffffffff1673ffffffffffffffffffffffffffffffffffffffff168152602001858152602001847effffffffffffffffffffffffffffffffffffffffffffffffffffffffffffff19167effffffffffffffffffffffffffffffffffffffffffffffffffffffffffffff19168152602001837effffffffffffffffffffffffffffffffffffffffffffffffffffffffffffff19167effffffffffffffffffffffffffffffffffffffffffffffffffffffffffffff19168152602001828152602001965050505050505060405180910390a15b600280811115610c9f57fe5b826002811115610cab57fe5b1415610e1a576611c37937e080006004600082825401925050819055507f3b19d607433249d2ebc766ae82ca3848e9c064f1febb5147bc6e5b21d0adebc586856020015160008760400151856000602081101515610d0557fe5b1a7f0100000000000000000000000000000000000000000000000000000000000000028960000151604051808781526020018673ffffffffffffffffffffffffffffffffffffffff1673ffffffffffffffffffffffffffffffffffffffff168152602001858152602001847effffffffffffffffffffffffffffffffffffffffffffffffffffffffffffff19167effffffffffffffffffffffffffffffffffffffffffffffffffffffffffffff19168152602001837effffffffffffffffffffffffffffffffffffffffffffffffffffffffffffff19167effffffffffffffffffffffffffffffffffffffffffffffffffffffffffffff19168152602001828152602001965050505050505060405180910390a15b60016002811115610e2757fe5b826002811115610e3357fe5b1415610fa157610e4e84602001516611c37937e08000611346565b94507f72ec2e949e4fad9380f9d5db3e2ed0e71cf22c51d8d66424508bdc761a3f4b0e868560200151878760400151856000602081101515610e8c57fe5b1a7f0100000000000000000000000000000000000000000000000000000000000000028960000151604051808781526020018673ffffffffffffffffffffffffffffffffffffffff1673ffffffffffffffffffffffffffffffffffffffff168152602001858152602001847effffffffffffffffffffffffffffffffffffffffffffffffffffffffffffff19167effffffffffffffffffffffffffffffffffffffffffffffffffffffffffffff19168152602001837effffffffffffffffffffffffffffffffffffffffffffffffffffffffffffff19167effffffffffffffffffffffffffffffffffffffffffffffffffffffffffffff19168152602001828152602001965050505050505060405180910390a15b505b60016002811115610fb057fe5b826002811115610fbc57fe5b1415610fc7576110e7565b600280811115610fd357fe5b826002811115610fdf57fe5b14156110d057610ffa83602001516611c37937e08000611346565b93507f59c0185881271a0f53d43e6ab9310091408f9e0ff9ae2512613de800f26b8de48584602001518686604001518760000151604051808681526020018573ffffffffffffffffffffffffffffffffffffffff1673ffffffffffffffffffffffffffffffffffffffff168152602001848152602001837effffffffffffffffffffffffffffffffffffffffffffffffffffffffffffff19167effffffffffffffffffffffffffffffffffffffffffffffffffffffffffffff191681526020018281526020019550505050505060405180910390a15b6110d98561140f565b5084806001019550506109ad565b846001819055505050505050565b60006611c37937e0800034141515611175576040517f08c379a000000000000000000000000000000000000000000000000000000000815260040180806020018281038252600f8152602001807f4e6f7420656e6f7567687420455448000000000000000000000000000000000081525060200191505060405180910390fd5b61117e82611473565b15156111f2576040517f08c379a000000000000000000000000000000000000000000000000000000000815260040180806020018281038252601a8152602001807f4661696c20746f206164642061206e65772042657420496e666f00000000000081525060200191505060405180910390fd5b7f100791de9f40bf2d56ffa6dc5597d2fd0b2703ea70bc7548cd74c04f5d215ab760016000540333348560034301604051808681526020018573ffffffffffffffffffffffffffffffffffffffff1673ffffffffffffffffffffffffffffffffffffffff168152602001848152602001837effffffffffffffffffffffffffffffffffffffffffffffffffffffffffffff19167effffffffffffffffffffffffffffffffffffffffffffffffffffffffffffff191681526020018281526020019550505050505060405180910390a160019050919050565b600081431180156112de5750816101000143105b156112ec5760009050611319565b81431115156112fe5760019050611319565b6101008201431015156113145760029050611319565b600290505b919050565b6000600560009054906101000a900460ff1661133c5760065461133f565b81405b9050919050565b60008060009050600081840390508473ffffffffffffffffffffffffffffffffffffffff166108fc829081150290604051600060405180830381858888f1935050505015801561139a573d6000803e3d6000fd5b50600360009054906101000a900473ffffffffffffffffffffffffffffffffffffffff1673ffffffffffffffffffffffffffffffffffffffff166108fc839081150290604051600060405180830381858888f19350505050158015611403573d6000803e3d6000fd5b50809250505092915050565b6000600260008381526020019081526020016000206000808201600090556001820160006101000a81549073ffffffffffffffffffffffffffffffffffffffff02191690556001820160146101000a81549060ff0219169055505060019050919050565b600061147d6115d7565b33816020019073ffffffffffffffffffffffffffffffffffffffff16908173ffffffffffffffffffffffffffffffffffffffff1681525050600343018160000181815250508281604001907effffffffffffffffffffffffffffffffffffffffffffffffffffffffffffff191690817effffffffffffffffffffffffffffffffffffffffffffffffffffffffffffff1916815250508060026000805481526020019081526020016000206000820151816000015560208201518160010160006101000a81548173ffffffffffffffffffffffffffffffffffffffff021916908373ffffffffffffffffffffffffffffffffffffffff16021790555060408201518160010160146101000a81548160ff02191690837f01000000000000000000000000000000000000000000000000000000000000009004021790555090505060008081548092919060010191905055506001915050919050565b60606040519081016040528060008152602001600073ffffffffffffffffffffffffffffffffffffffff16815260200160007effffffffffffffffffffffffffffffffffffffffffffffffffffffffffffff19168152509056fea165627a7a72305820c5c7994db6ba3cee0dc59b2b39af1cbc63fee1560433dae3c1b3cabff16de41c0029",
  "source": "// SPDX-License-Identifier: MIT\npragma solidity >=0.4.22 <0.9.0;\n\n//version, from MIgrations.sol\ncontract Lottery {\n    struct BetInfo {\n        uint256 answerBlockNumber;\n        address payable bettor;\n        //0.4.2 이후 payable필요 트랜잭션 하려면\n        bytes1 challenges;\n    }\n    //선형큐\n    uint256 private _tail;\n    uint256 private _head;\n    mapping(uint256 => BetInfo) private _bets;\n\n    address payable public owner;\n\n    uint256 private _pot;\n    bool private mode = false; //false:use answer for test, true: use real block hash\n    bytes32 public answerForTest;\n\n    uint256 internal constant BLOCK_LIMIT = 256;\n    uint256 internal constant BET_BLOCK_INTERVAL = 3;\n    uint256 internal constant BET_AMOUNT = 5 * 10**15;\n    //enum object 순서 번호로 리턴\n\n    enum BlockStatus {\n        Checkable,\n        NotRevealed,\n        BlockLimitPassed\n    }\n    enum BettingResult {\n        Win,\n        Draw,\n        Fail\n    }\n    event BET(\n        uint256 index,\n        address bettor,\n        uint256 amount,\n        bytes1 challenges,\n        uint256 answerBlockNumber\n    );\n    event WIN(\n        uint256 index,\n        address bettor,\n        uint256 amount,\n        bytes1 challenges,\n        bytes1 answer,\n        uint256 answerBlockNumber\n    );\n    event DRAW(\n        uint256 index,\n        address bettor,\n        uint256 amount,\n        bytes1 challenges,\n        bytes1 answer,\n        uint256 answerBlockNumber\n    );\n    event FAIL(\n        uint256 index,\n        address bettor,\n        uint256 amount,\n        bytes1 challenges,\n        bytes1 answer,\n        uint256 answerBlockNumber\n    );\n    event REFUND(\n        uint256 index,\n        address bettor,\n        uint256 amount,\n        bytes1 challenges,\n        uint256 answerBlockNumber\n    );\n\n    //public 이면 자동으로 getter\n    constructor() public {\n        owner = msg.sender;\n    }\n\n    function getPot() public view returns (uint256 pot) {\n        return _pot;\n    }\n\n    //betting 과 정답체크 동시 되도록하는 함수 (없을시 운영자가 해줘야 함)\n    /**\n     * @dev 베팅과 정답 체크를 한다. 유저는 0.005ETH롤 보내야 하고, 베팅을 1byte 글자를 보낸다.\n     * 큐에 저장된 베팅 정보는 이후 disribute 함수에서 해결됨\n     * @param challenges 유저가 베팅하는 글자\n     * @return 함수 수행여부 확인 bool\n     */\n    function betAndDistribute(bytes1 challenges)\n        public\n        payable\n        returns (bool result)\n    {\n        bet(challenges);\n        distribute();\n        return true;\n    }\n\n    //Bet\n    /**\n     * @dev 베팅을 한다. 유저 0.005 eth 보낸 후, 베팅용 1byte 글자를 보냄\n     * 큐에 저장된 베팅 정보는 이후 disribute 함수에서 해결됨\n     * @param challenges 유저가 베팅하는 글자\n     * @return 함수 수행여부 확인 bool\n     */\n    function bet(bytes1 challenges) public payable returns (bool result) {\n        // check the proper ether is sent\n        require(msg.value == BET_AMOUNT, \"Not enought ETH\");\n        // truffle 테스트시 메시지 노출\n\n        //push bet to the queue\n        require(pushBet(challenges), \"Fail to add a new Bet Info\");\n        //emit event\n        emit BET(\n            _tail - 1,\n            msg.sender,\n            msg.value,\n            challenges,\n            block.number + BET_BLOCK_INTERVAL\n        );\n        //emit : 375gas, 375/per parameter, parameter save 8 gas per byte = about 5000 gas\n        return true;\n    }\n\n    //save the bet to the queue\n\n    // Distribute\n    /**\n     * @dev 베팅결과 확인하고 팟 머니 분배\n     * 정답실패:팟머니 축척, 정답:팟머니획득, 한글자 정답 또는 확인불가:베팅금액만 획득\n     */\n    function distribute() public {\n        // 큐에 저장된 베팅 정보 ex : head 3 4 5 6 7 8 tail\n        // 해시 확인 불가 경우 1. 아직 마이닝 안 됨, 2. 너무 오래되어 256 초과\n        uint256 cur;\n        uint256 transferAmount;\n\n        BetInfo memory b;\n        BlockStatus currentBlockStatus;\n        BettingResult currentBettingResult;\n        for (cur = _head; cur < _tail; cur++) {\n            b = _bets[cur];\n            currentBlockStatus = getBlockStatus(b.answerBlockNumber);\n            //Checkable:block.number > answerBlockNumber && block.number - BLOCK_LIMIT <  answerBlockNumber\n            if (currentBlockStatus == BlockStatus.Checkable) {\n                bytes32 answerBlockHash = getAnswerBlockHash(\n                    b.answerBlockNumber\n                );\n                currentBettingResult = isMatch(\n                    b.challenges,\n                    // blockhash(b.answerBlockNumber)\n                    answerBlockHash\n                );\n                // if win, bettor gets pot\n                if (currentBettingResult == BettingResult.Win) {\n                    //transfer pot\n                    transferAfterPayingFee(b.bettor, _pot + BET_AMOUNT);\n                    //pot=0\n                    //transfer 이외 펑션 경우 _pot=0을 먼저 선언, pot은 반드시 0이 되어야 함으로\n                    _pot = 0;\n\n                    //emit WIN\n                    emit WIN(\n                        cur,\n                        b.bettor,\n                        transferAmount,\n                        b.challenges,\n                        answerBlockHash[0],\n                        b.answerBlockNumber\n                    );\n                }\n                // if fail, bettor's money goes pot\n                if (currentBettingResult == BettingResult.Fail) {\n                    //pot=pot+BET_AMOUNT\n                    _pot += BET_AMOUNT;\n                    //emit FAIL\n                    emit FAIL(\n                        cur,\n                        b.bettor,\n                        0,\n                        b.challenges,\n                        answerBlockHash[0],\n                        b.answerBlockNumber\n                    );\n                }\n                // if draw, refund bettor's money\n                if (currentBettingResult == BettingResult.Draw) {\n                    //transfer only BET_AMOUNT\n                    transferAmount = transferAfterPayingFee(\n                        b.bettor,\n                        BET_AMOUNT\n                    );\n                    // emit DRAW\n                    emit DRAW(\n                        cur,\n                        b.bettor,\n                        transferAmount,\n                        b.challenges,\n                        answerBlockHash[0],\n                        b.answerBlockNumber\n                    );\n                }\n            }\n            //Not Revealed:block.number <= answerBlockNumber\n            if (currentBlockStatus == BlockStatus.NotRevealed) {\n                break;\n            }\n            //Block Limit Passed : block.number >= answerBlockNumber + BLOCK_LIMIT\n            if (currentBlockStatus == BlockStatus.BlockLimitPassed) {\n                //refund\n                transferAmount = transferAfterPayingFee(b.bettor, BET_AMOUNT);\n                //emit refund\n                emit REFUND(\n                    cur,\n                    b.bettor,\n                    transferAmount,\n                    b.challenges,\n                    b.answerBlockNumber\n                );\n            }\n            //check the answer\n            popBet(cur);\n        }\n        _head = cur;\n    }\n\n    function transferAfterPayingFee(address payable addr, uint256 amount)\n        internal\n        returns (uint256)\n    {\n        // uint256 fee = amount / 100;\n        //for test, 0\n        uint256 fee = 0;\n        uint256 amountWithoutFee = amount - fee;\n        //transfer to addr\n        addr.transfer(amountWithoutFee);\n        //transfer to owner\n        owner.transfer(fee);\n\n        return amountWithoutFee;\n    }\n\n    function setAnswerForTest(bytes32 answer)\n        public\n        returns (\n            // view\n            bool result\n        )\n    {\n        require(\n            msg.sender == owner,\n            \"Only owner can set the answer forr test mode\"\n        );\n        answerForTest = answer;\n        return true;\n    }\n\n    function getAnswerBlockHash(uint256 answerBlockNumber)\n        internal\n        view\n        returns (bytes32 answer)\n    {\n        return mode ? blockhash(answerBlockNumber) : answerForTest;\n    }\n\n    /**\n@dev 배팅글자와 정답 확인\n@param challenges 베팅글자\n@param answer 블럭해시\n@return 정답결과\n */\n    function isMatch(bytes1 challenges, bytes32 answer)\n        public\n        pure\n        returns (BettingResult)\n    {\n        // challenges 0xab\n        //answer 0xab...ff 32 bytes\n        bytes1 c1 = challenges;\n        bytes1 c2 = challenges;\n        bytes1 a1 = answer[0];\n        bytes1 a2 = answer[0];\n\n        //Get first number\n        // shfting(move byte padding 0)\n        c1 = c1 >> 4; //0xab > 0x0a\n        c1 = c1 << 4; //0x0a > 0xa0\n\n        a1 = a1 >> 4;\n        a1 = a1 << 4;\n        //Get Second Number\n        c2 = c2 << 4; //0xab > 0xb0\n        c2 = c2 >> 4; //0xab > 0x0b\n\n        a2 = a2 << 4;\n        a2 = a2 >> 4;\n\n        if (a1 == c1 && a2 == c2) {\n            return BettingResult.Win;\n        }\n\n        if (a1 == c1 || a2 == c2) {\n            return BettingResult.Draw;\n        }\n        return BettingResult.Fail;\n    }\n\n    function getBlockStatus(uint256 answerBlockNumber)\n        internal\n        view\n        returns (BlockStatus)\n    {\n        if (\n            block.number > answerBlockNumber &&\n            block.number < BLOCK_LIMIT + answerBlockNumber\n        ) {\n            // return 1;\n            return BlockStatus.Checkable;\n        }\n\n        if (block.number <= answerBlockNumber) {\n            // return 2;\n            return BlockStatus.NotRevealed;\n        }\n        if (block.number >= answerBlockNumber + BLOCK_LIMIT) {\n            // return 3;\n            return BlockStatus.BlockLimitPassed;\n        }\n        return BlockStatus.BlockLimitPassed;\n        //for safety\n    }\n\n    // check the answer\n\n    function getBetInfo(uint256 index)\n        public\n        view\n        returns (\n            uint256 answerBlockNumber,\n            address bettor,\n            bytes1 challenges\n        )\n    {\n        //매핑펑션  모두 불러올 수는 있으나 0으로 초기화된 상태\n        BetInfo memory b = _bets[index];\n        answerBlockNumber = b.answerBlockNumber;\n        bettor = b.bettor;\n        challenges = b.challenges;\n    }\n\n    function pushBet(bytes1 challenges) internal returns (bool) {\n        BetInfo memory b;\n        b.bettor = msg.sender; // 20 byte\n        b.answerBlockNumber = block.number + BET_BLOCK_INTERVAL; //32 byte, 20000gas\n        b.challenges = challenges; // byte, 20000gas\n\n        _bets[_tail] = b;\n        _tail++; //32byte, 20000gas\n        return true;\n    }\n\n    function popBet(uint256 index) internal returns (bool) {\n        //gas refund : delete, 상태데이터를 그냥 가져오기만 할때 불필요값은 delete\n        delete _bets[index];\n        return true;\n    }\n}\n",
  "sourcePath": "/Users/lsh/devsrc/mine/sol/lottery/lottery_dapp/contracts/Lottery.sol",
  "compiler": {
    "name": "solc",
    "version": "0.5.0+commit.1d4f565a.Emscripten.clang"
  },
  "schemaVersion": "3.0.1",
  "updatedAt": "2021-12-17T02:53:18.176Z",
  "devdoc": {
    "methods": {
      "bet(bytes1)": {
        "details": "베팅을 한다. 유저 0.005 eth 보낸 후, 베팅용 1byte 글자를 보냄 큐에 저장된 베팅 정보는 이후 disribute 함수에서 해결됨",
        "params": {
          "challenges": "유저가 베팅하는 글자"
        },
        "return": "함수 수행여부 확인 bool"
      },
      "betAndDistribute(bytes1)": {
        "details": "베팅과 정답 체크를 한다. 유저는 0.005ETH롤 보내야 하고, 베팅을 1byte 글자를 보낸다. 큐에 저장된 베팅 정보는 이후 disribute 함수에서 해결됨",
        "params": {
          "challenges": "유저가 베팅하는 글자"
        },
        "return": "함수 수행여부 확인 bool"
      },
      "distribute()": {
        "details": "베팅결과 확인하고 팟 머니 분배 정답실패:팟머니 축척, 정답:팟머니획득, 한글자 정답 또는 확인불가:베팅금액만 획득"
      },
      "isMatch(bytes1,bytes32)": {
        "details": "배팅글자와 정답 확인",
        "params": {
          "answer": "블럭해시",
          "challenges": "베팅글자"
        },
        "return": "정답결과"
      }
    }
  },
  "userdoc": {
    "methods": {}
  }
}